{
	"data": {
		"bytecode": {
			"linkReferences": {},
			"object": "608060405234801561001057600080fd5b50610ed2806100206000396000f3fe608060405234801561001057600080fd5b50600436106100365760003560e01c806368f3cd8d1461003b5780637789e5ff14610057575b600080fd5b61005560048036038101906100509190610782565b610087565b005b610071600480360381019061006c9190610851565b61028b565b60405161007e919061092e565b60405180910390f35b858560008a8a60405161009b92919061098f565b908152602001604051809103902091826100b6929190610bf8565b5083600189896040516100ca92919061098f565b9081526020016040518091039020819055506000600289896040516100f092919061098f565b90815260200160405180910390209050838160000160006101000a81548173ffffffffffffffffffffffffffffffffffffffff021916908373ffffffffffffffffffffffffffffffffffffffff160217905550828160010160006101000a81548173ffffffffffffffffffffffffffffffffffffffff021916908373ffffffffffffffffffffffffffffffffffffffff160217905550818160020160006101000a81548173ffffffffffffffffffffffffffffffffffffffff021916908373ffffffffffffffffffffffffffffffffffffffff1602179055507fcf4fb6c8d7bcbae86bb2fc2bd5abe708b36e122b75a2eae69cf176a3bcb76fd689896040516101fa929190610d06565b60405180910390a18173ffffffffffffffffffffffffffffffffffffffff168373ffffffffffffffffffffffffffffffffffffffff168573ffffffffffffffffffffffffffffffffffffffff167f20d4dc4c9bd203367a78d8cbfe00be045e9635bb77e1f52aca7890236a4b00738c8c604051610278929190610d06565b60405180910390a4505050505050505050565b606060008084846040516102a092919061098f565b908152602001604051809103902080546102b990610a11565b80601f01602080910402602001604051908101604052809291908181526020018280546102e590610a11565b80156103325780601f1061030757610100808354040283529160200191610332565b820191906000526020600020905b81548152906001019060200180831161031557829003601f168201915b5050505050905060006001858560405161034d92919061098f565b90815260200160405180910390205490506002858560405161037092919061098f565b908152602001604051809103902060000160009054906101000a900473ffffffffffffffffffffffffffffffffffffffff1673ffffffffffffffffffffffffffffffffffffffff163373ffffffffffffffffffffffffffffffffffffffff1614806104495750600285856040516103e892919061098f565b908152602001604051809103902060010160009054906101000a900473ffffffffffffffffffffffffffffffffffffffff1673ffffffffffffffffffffffffffffffffffffffff163373ffffffffffffffffffffffffffffffffffffffff16145b806104c257506002858560405161046192919061098f565b908152602001604051809103902060020160009054906101000a900473ffffffffffffffffffffffffffffffffffffffff1673ffffffffffffffffffffffffffffffffffffffff163373ffffffffffffffffffffffffffffffffffffffff16145b610501576040517f08c379a00000000000000000000000000000000000000000000000000000000081526004016104f890610d76565b60405180910390fd5b600061050d838361051b565b905080935050505092915050565b60606000835167ffffffffffffffff81111561053a576105396109b3565b5b6040519080825280601f01601f19166020018201604052801561056c5781602001600182028036833780820191505090505b50905060005b845181101561061e57836020826105899190610dc5565b6020811061059a57610599610df6565b5b1a60f81b60f81c60f81b8582815181106105b7576105b6610df6565b5b602001015160f81c60f81b60f81c60f81b188282815181106105dc576105db610df6565b5b60200101907effffffffffffffffffffffffffffffffffffffffffffffffffffffffffffff1916908160001a905350808061061690610e54565b915050610572565b508091505092915050565b600080fd5b600080fd5b600080fd5b600080fd5b600080fd5b60008083601f84011261065857610657610633565b5b8235905067ffffffffffffffff81111561067557610674610638565b5b6020830191508360018202830111156106915761069061063d565b5b9250929050565b60008083601f8401126106ae576106ad610633565b5b8235905067ffffffffffffffff8111156106cb576106ca610638565b5b6020830191508360018202830111156106e7576106e661063d565b5b9250929050565b6000819050919050565b610701816106ee565b811461070c57600080fd5b50565b60008135905061071e816106f8565b92915050565b600073ffffffffffffffffffffffffffffffffffffffff82169050919050565b600061074f82610724565b9050919050565b61075f81610744565b811461076a57600080fd5b50565b60008135905061077c81610756565b92915050565b60008060008060008060008060c0898b0312156107a2576107a1610629565b5b600089013567ffffffffffffffff8111156107c0576107bf61062e565b5b6107cc8b828c01610642565b9850985050602089013567ffffffffffffffff8111156107ef576107ee61062e565b5b6107fb8b828c01610698565b9650965050604061080e8b828c0161070f565b945050606061081f8b828c0161076d565b93505060806108308b828c0161076d565b92505060a06108418b828c0161076d565b9150509295985092959890939650565b6000806020838503121561086857610867610629565b5b600083013567ffffffffffffffff8111156108865761088561062e565b5b61089285828601610642565b92509250509250929050565b600081519050919050565b600082825260208201905092915050565b60005b838110156108d85780820151818401526020810190506108bd565b60008484015250505050565b6000601f19601f8301169050919050565b60006109008261089e565b61090a81856108a9565b935061091a8185602086016108ba565b610923816108e4565b840191505092915050565b6000602082019050818103600083015261094881846108f5565b905092915050565b600081905092915050565b82818337600083830152505050565b60006109768385610950565b935061098383858461095b565b82840190509392505050565b600061099c82848661096a565b91508190509392505050565b600082905092915050565b7f4e487b7100000000000000000000000000000000000000000000000000000000600052604160045260246000fd5b7f4e487b7100000000000000000000000000000000000000000000000000000000600052602260045260246000fd5b60006002820490506001821680610a2957607f821691505b602082108103610a3c57610a3b6109e2565b5b50919050565b60008190508160005260206000209050919050565b60006020601f8301049050919050565b600082821b905092915050565b600060088302610aa47fffffffffffffffffffffffffffffffffffffffffffffffffffffffffffffffff82610a67565b610aae8683610a67565b95508019841693508086168417925050509392505050565b6000819050919050565b6000819050919050565b6000610af5610af0610aeb84610ac6565b610ad0565b610ac6565b9050919050565b6000819050919050565b610b0f83610ada565b610b23610b1b82610afc565b848454610a74565b825550505050565b600090565b610b38610b2b565b610b43818484610b06565b505050565b5b81811015610b6757610b5c600082610b30565b600181019050610b49565b5050565b601f821115610bac57610b7d81610a42565b610b8684610a57565b81016020851015610b95578190505b610ba9610ba185610a57565b830182610b48565b50505b505050565b600082821c905092915050565b6000610bcf60001984600802610bb1565b1980831691505092915050565b6000610be88383610bbe565b9150826002028217905092915050565b610c0283836109a8565b67ffffffffffffffff811115610c1b57610c1a6109b3565b5b610c258254610a11565b610c30828285610b6b565b6000601f831160018114610c5f5760008415610c4d578287013590505b610c578582610bdc565b865550610cbf565b601f198416610c6d86610a42565b60005b82811015610c9557848901358255600182019150602085019450602081019050610c70565b86831015610cb25784890135610cae601f891682610bbe565b8355505b6001600288020188555050505b50505050505050565b600082825260208201905092915050565b6000610ce58385610cc8565b9350610cf283858461095b565b610cfb836108e4565b840190509392505050565b60006020820190508181036000830152610d21818486610cd9565b90509392505050565b7f4163636573732064656e69656400000000000000000000000000000000000000600082015250565b6000610d60600d83610cc8565b9150610d6b82610d2a565b602082019050919050565b60006020820190508181036000830152610d8f81610d53565b9050919050565b7f4e487b7100000000000000000000000000000000000000000000000000000000600052601260045260246000fd5b6000610dd082610ac6565b9150610ddb83610ac6565b925082610deb57610dea610d96565b5b828206905092915050565b7f4e487b7100000000000000000000000000000000000000000000000000000000600052603260045260246000fd5b7f4e487b7100000000000000000000000000000000000000000000000000000000600052601160045260246000fd5b6000610e5f82610ac6565b91507fffffffffffffffffffffffffffffffffffffffffffffffffffffffffffffffff8203610e9157610e90610e25565b5b60018201905091905056fea26469706673582212204c491a07792a183b19e1755939004198e78f778bbe3ad37ee660163a9852987f64736f6c63430008120033",
			"opcodes": "PUSH1 0x80 PUSH1 0x40 MSTORE CALLVALUE DUP1 ISZERO PUSH2 0x10 JUMPI PUSH1 0x0 DUP1 REVERT JUMPDEST POP PUSH2 0xED2 DUP1 PUSH2 0x20 PUSH1 0x0 CODECOPY PUSH1 0x0 RETURN INVALID PUSH1 0x80 PUSH1 0x40 MSTORE CALLVALUE DUP1 ISZERO PUSH2 0x10 JUMPI PUSH1 0x0 DUP1 REVERT JUMPDEST POP PUSH1 0x4 CALLDATASIZE LT PUSH2 0x36 JUMPI PUSH1 0x0 CALLDATALOAD PUSH1 0xE0 SHR DUP1 PUSH4 0x68F3CD8D EQ PUSH2 0x3B JUMPI DUP1 PUSH4 0x7789E5FF EQ PUSH2 0x57 JUMPI JUMPDEST PUSH1 0x0 DUP1 REVERT JUMPDEST PUSH2 0x55 PUSH1 0x4 DUP1 CALLDATASIZE SUB DUP2 ADD SWAP1 PUSH2 0x50 SWAP2 SWAP1 PUSH2 0x782 JUMP JUMPDEST PUSH2 0x87 JUMP JUMPDEST STOP JUMPDEST PUSH2 0x71 PUSH1 0x4 DUP1 CALLDATASIZE SUB DUP2 ADD SWAP1 PUSH2 0x6C SWAP2 SWAP1 PUSH2 0x851 JUMP JUMPDEST PUSH2 0x28B JUMP JUMPDEST PUSH1 0x40 MLOAD PUSH2 0x7E SWAP2 SWAP1 PUSH2 0x92E JUMP JUMPDEST PUSH1 0x40 MLOAD DUP1 SWAP2 SUB SWAP1 RETURN JUMPDEST DUP6 DUP6 PUSH1 0x0 DUP11 DUP11 PUSH1 0x40 MLOAD PUSH2 0x9B SWAP3 SWAP2 SWAP1 PUSH2 0x98F JUMP JUMPDEST SWAP1 DUP2 MSTORE PUSH1 0x20 ADD PUSH1 0x40 MLOAD DUP1 SWAP2 SUB SWAP1 KECCAK256 SWAP2 DUP3 PUSH2 0xB6 SWAP3 SWAP2 SWAP1 PUSH2 0xBF8 JUMP JUMPDEST POP DUP4 PUSH1 0x1 DUP10 DUP10 PUSH1 0x40 MLOAD PUSH2 0xCA SWAP3 SWAP2 SWAP1 PUSH2 0x98F JUMP JUMPDEST SWAP1 DUP2 MSTORE PUSH1 0x20 ADD PUSH1 0x40 MLOAD DUP1 SWAP2 SUB SWAP1 KECCAK256 DUP2 SWAP1 SSTORE POP PUSH1 0x0 PUSH1 0x2 DUP10 DUP10 PUSH1 0x40 MLOAD PUSH2 0xF0 SWAP3 SWAP2 SWAP1 PUSH2 0x98F JUMP JUMPDEST SWAP1 DUP2 MSTORE PUSH1 0x20 ADD PUSH1 0x40 MLOAD DUP1 SWAP2 SUB SWAP1 KECCAK256 SWAP1 POP DUP4 DUP2 PUSH1 0x0 ADD PUSH1 0x0 PUSH2 0x100 EXP DUP2 SLOAD DUP2 PUSH20 0xFFFFFFFFFFFFFFFFFFFFFFFFFFFFFFFFFFFFFFFF MUL NOT AND SWAP1 DUP4 PUSH20 0xFFFFFFFFFFFFFFFFFFFFFFFFFFFFFFFFFFFFFFFF AND MUL OR SWAP1 SSTORE POP DUP3 DUP2 PUSH1 0x1 ADD PUSH1 0x0 PUSH2 0x100 EXP DUP2 SLOAD DUP2 PUSH20 0xFFFFFFFFFFFFFFFFFFFFFFFFFFFFFFFFFFFFFFFF MUL NOT AND SWAP1 DUP4 PUSH20 0xFFFFFFFFFFFFFFFFFFFFFFFFFFFFFFFFFFFFFFFF AND MUL OR SWAP1 SSTORE POP DUP2 DUP2 PUSH1 0x2 ADD PUSH1 0x0 PUSH2 0x100 EXP DUP2 SLOAD DUP2 PUSH20 0xFFFFFFFFFFFFFFFFFFFFFFFFFFFFFFFFFFFFFFFF MUL NOT AND SWAP1 DUP4 PUSH20 0xFFFFFFFFFFFFFFFFFFFFFFFFFFFFFFFFFFFFFFFF AND MUL OR SWAP1 SSTORE POP PUSH32 0xCF4FB6C8D7BCBAE86BB2FC2BD5ABE708B36E122B75A2EAE69CF176A3BCB76FD6 DUP10 DUP10 PUSH1 0x40 MLOAD PUSH2 0x1FA SWAP3 SWAP2 SWAP1 PUSH2 0xD06 JUMP JUMPDEST PUSH1 0x40 MLOAD DUP1 SWAP2 SUB SWAP1 LOG1 DUP2 PUSH20 0xFFFFFFFFFFFFFFFFFFFFFFFFFFFFFFFFFFFFFFFF AND DUP4 PUSH20 0xFFFFFFFFFFFFFFFFFFFFFFFFFFFFFFFFFFFFFFFF AND DUP6 PUSH20 0xFFFFFFFFFFFFFFFFFFFFFFFFFFFFFFFFFFFFFFFF AND PUSH32 0x20D4DC4C9BD203367A78D8CBFE00BE045E9635BB77E1F52ACA7890236A4B0073 DUP13 DUP13 PUSH1 0x40 MLOAD PUSH2 0x278 SWAP3 SWAP2 SWAP1 PUSH2 0xD06 JUMP JUMPDEST PUSH1 0x40 MLOAD DUP1 SWAP2 SUB SWAP1 LOG4 POP POP POP POP POP POP POP POP POP JUMP JUMPDEST PUSH1 0x60 PUSH1 0x0 DUP1 DUP5 DUP5 PUSH1 0x40 MLOAD PUSH2 0x2A0 SWAP3 SWAP2 SWAP1 PUSH2 0x98F JUMP JUMPDEST SWAP1 DUP2 MSTORE PUSH1 0x20 ADD PUSH1 0x40 MLOAD DUP1 SWAP2 SUB SWAP1 KECCAK256 DUP1 SLOAD PUSH2 0x2B9 SWAP1 PUSH2 0xA11 JUMP JUMPDEST DUP1 PUSH1 0x1F ADD PUSH1 0x20 DUP1 SWAP2 DIV MUL PUSH1 0x20 ADD PUSH1 0x40 MLOAD SWAP1 DUP2 ADD PUSH1 0x40 MSTORE DUP1 SWAP3 SWAP2 SWAP1 DUP2 DUP2 MSTORE PUSH1 0x20 ADD DUP3 DUP1 SLOAD PUSH2 0x2E5 SWAP1 PUSH2 0xA11 JUMP JUMPDEST DUP1 ISZERO PUSH2 0x332 JUMPI DUP1 PUSH1 0x1F LT PUSH2 0x307 JUMPI PUSH2 0x100 DUP1 DUP4 SLOAD DIV MUL DUP4 MSTORE SWAP2 PUSH1 0x20 ADD SWAP2 PUSH2 0x332 JUMP JUMPDEST DUP3 ADD SWAP2 SWAP1 PUSH1 0x0 MSTORE PUSH1 0x20 PUSH1 0x0 KECCAK256 SWAP1 JUMPDEST DUP2 SLOAD DUP2 MSTORE SWAP1 PUSH1 0x1 ADD SWAP1 PUSH1 0x20 ADD DUP1 DUP4 GT PUSH2 0x315 JUMPI DUP3 SWAP1 SUB PUSH1 0x1F AND DUP3 ADD SWAP2 JUMPDEST POP POP POP POP POP SWAP1 POP PUSH1 0x0 PUSH1 0x1 DUP6 DUP6 PUSH1 0x40 MLOAD PUSH2 0x34D SWAP3 SWAP2 SWAP1 PUSH2 0x98F JUMP JUMPDEST SWAP1 DUP2 MSTORE PUSH1 0x20 ADD PUSH1 0x40 MLOAD DUP1 SWAP2 SUB SWAP1 KECCAK256 SLOAD SWAP1 POP PUSH1 0x2 DUP6 DUP6 PUSH1 0x40 MLOAD PUSH2 0x370 SWAP3 SWAP2 SWAP1 PUSH2 0x98F JUMP JUMPDEST SWAP1 DUP2 MSTORE PUSH1 0x20 ADD PUSH1 0x40 MLOAD DUP1 SWAP2 SUB SWAP1 KECCAK256 PUSH1 0x0 ADD PUSH1 0x0 SWAP1 SLOAD SWAP1 PUSH2 0x100 EXP SWAP1 DIV PUSH20 0xFFFFFFFFFFFFFFFFFFFFFFFFFFFFFFFFFFFFFFFF AND PUSH20 0xFFFFFFFFFFFFFFFFFFFFFFFFFFFFFFFFFFFFFFFF AND CALLER PUSH20 0xFFFFFFFFFFFFFFFFFFFFFFFFFFFFFFFFFFFFFFFF AND EQ DUP1 PUSH2 0x449 JUMPI POP PUSH1 0x2 DUP6 DUP6 PUSH1 0x40 MLOAD PUSH2 0x3E8 SWAP3 SWAP2 SWAP1 PUSH2 0x98F JUMP JUMPDEST SWAP1 DUP2 MSTORE PUSH1 0x20 ADD PUSH1 0x40 MLOAD DUP1 SWAP2 SUB SWAP1 KECCAK256 PUSH1 0x1 ADD PUSH1 0x0 SWAP1 SLOAD SWAP1 PUSH2 0x100 EXP SWAP1 DIV PUSH20 0xFFFFFFFFFFFFFFFFFFFFFFFFFFFFFFFFFFFFFFFF AND PUSH20 0xFFFFFFFFFFFFFFFFFFFFFFFFFFFFFFFFFFFFFFFF AND CALLER PUSH20 0xFFFFFFFFFFFFFFFFFFFFFFFFFFFFFFFFFFFFFFFF AND EQ JUMPDEST DUP1 PUSH2 0x4C2 JUMPI POP PUSH1 0x2 DUP6 DUP6 PUSH1 0x40 MLOAD PUSH2 0x461 SWAP3 SWAP2 SWAP1 PUSH2 0x98F JUMP JUMPDEST SWAP1 DUP2 MSTORE PUSH1 0x20 ADD PUSH1 0x40 MLOAD DUP1 SWAP2 SUB SWAP1 KECCAK256 PUSH1 0x2 ADD PUSH1 0x0 SWAP1 SLOAD SWAP1 PUSH2 0x100 EXP SWAP1 DIV PUSH20 0xFFFFFFFFFFFFFFFFFFFFFFFFFFFFFFFFFFFFFFFF AND PUSH20 0xFFFFFFFFFFFFFFFFFFFFFFFFFFFFFFFFFFFFFFFF AND CALLER PUSH20 0xFFFFFFFFFFFFFFFFFFFFFFFFFFFFFFFFFFFFFFFF AND EQ JUMPDEST PUSH2 0x501 JUMPI PUSH1 0x40 MLOAD PUSH32 0x8C379A000000000000000000000000000000000000000000000000000000000 DUP2 MSTORE PUSH1 0x4 ADD PUSH2 0x4F8 SWAP1 PUSH2 0xD76 JUMP JUMPDEST PUSH1 0x40 MLOAD DUP1 SWAP2 SUB SWAP1 REVERT JUMPDEST PUSH1 0x0 PUSH2 0x50D DUP4 DUP4 PUSH2 0x51B JUMP JUMPDEST SWAP1 POP DUP1 SWAP4 POP POP POP POP SWAP3 SWAP2 POP POP JUMP JUMPDEST PUSH1 0x60 PUSH1 0x0 DUP4 MLOAD PUSH8 0xFFFFFFFFFFFFFFFF DUP2 GT ISZERO PUSH2 0x53A JUMPI PUSH2 0x539 PUSH2 0x9B3 JUMP JUMPDEST JUMPDEST PUSH1 0x40 MLOAD SWAP1 DUP1 DUP3 MSTORE DUP1 PUSH1 0x1F ADD PUSH1 0x1F NOT AND PUSH1 0x20 ADD DUP3 ADD PUSH1 0x40 MSTORE DUP1 ISZERO PUSH2 0x56C JUMPI DUP2 PUSH1 0x20 ADD PUSH1 0x1 DUP3 MUL DUP1 CALLDATASIZE DUP4 CALLDATACOPY DUP1 DUP3 ADD SWAP2 POP POP SWAP1 POP JUMPDEST POP SWAP1 POP PUSH1 0x0 JUMPDEST DUP5 MLOAD DUP2 LT ISZERO PUSH2 0x61E JUMPI DUP4 PUSH1 0x20 DUP3 PUSH2 0x589 SWAP2 SWAP1 PUSH2 0xDC5 JUMP JUMPDEST PUSH1 0x20 DUP2 LT PUSH2 0x59A JUMPI PUSH2 0x599 PUSH2 0xDF6 JUMP JUMPDEST JUMPDEST BYTE PUSH1 0xF8 SHL PUSH1 0xF8 SHR PUSH1 0xF8 SHL DUP6 DUP3 DUP2 MLOAD DUP2 LT PUSH2 0x5B7 JUMPI PUSH2 0x5B6 PUSH2 0xDF6 JUMP JUMPDEST JUMPDEST PUSH1 0x20 ADD ADD MLOAD PUSH1 0xF8 SHR PUSH1 0xF8 SHL PUSH1 0xF8 SHR PUSH1 0xF8 SHL XOR DUP3 DUP3 DUP2 MLOAD DUP2 LT PUSH2 0x5DC JUMPI PUSH2 0x5DB PUSH2 0xDF6 JUMP JUMPDEST JUMPDEST PUSH1 0x20 ADD ADD SWAP1 PUSH31 0xFFFFFFFFFFFFFFFFFFFFFFFFFFFFFFFFFFFFFFFFFFFFFFFFFFFFFFFFFFFFFF NOT AND SWAP1 DUP2 PUSH1 0x0 BYTE SWAP1 MSTORE8 POP DUP1 DUP1 PUSH2 0x616 SWAP1 PUSH2 0xE54 JUMP JUMPDEST SWAP2 POP POP PUSH2 0x572 JUMP JUMPDEST POP DUP1 SWAP2 POP POP SWAP3 SWAP2 POP POP JUMP JUMPDEST PUSH1 0x0 DUP1 REVERT JUMPDEST PUSH1 0x0 DUP1 REVERT JUMPDEST PUSH1 0x0 DUP1 REVERT JUMPDEST PUSH1 0x0 DUP1 REVERT JUMPDEST PUSH1 0x0 DUP1 REVERT JUMPDEST PUSH1 0x0 DUP1 DUP4 PUSH1 0x1F DUP5 ADD SLT PUSH2 0x658 JUMPI PUSH2 0x657 PUSH2 0x633 JUMP JUMPDEST JUMPDEST DUP3 CALLDATALOAD SWAP1 POP PUSH8 0xFFFFFFFFFFFFFFFF DUP2 GT ISZERO PUSH2 0x675 JUMPI PUSH2 0x674 PUSH2 0x638 JUMP JUMPDEST JUMPDEST PUSH1 0x20 DUP4 ADD SWAP2 POP DUP4 PUSH1 0x1 DUP3 MUL DUP4 ADD GT ISZERO PUSH2 0x691 JUMPI PUSH2 0x690 PUSH2 0x63D JUMP JUMPDEST JUMPDEST SWAP3 POP SWAP3 SWAP1 POP JUMP JUMPDEST PUSH1 0x0 DUP1 DUP4 PUSH1 0x1F DUP5 ADD SLT PUSH2 0x6AE JUMPI PUSH2 0x6AD PUSH2 0x633 JUMP JUMPDEST JUMPDEST DUP3 CALLDATALOAD SWAP1 POP PUSH8 0xFFFFFFFFFFFFFFFF DUP2 GT ISZERO PUSH2 0x6CB JUMPI PUSH2 0x6CA PUSH2 0x638 JUMP JUMPDEST JUMPDEST PUSH1 0x20 DUP4 ADD SWAP2 POP DUP4 PUSH1 0x1 DUP3 MUL DUP4 ADD GT ISZERO PUSH2 0x6E7 JUMPI PUSH2 0x6E6 PUSH2 0x63D JUMP JUMPDEST JUMPDEST SWAP3 POP SWAP3 SWAP1 POP JUMP JUMPDEST PUSH1 0x0 DUP2 SWAP1 POP SWAP2 SWAP1 POP JUMP JUMPDEST PUSH2 0x701 DUP2 PUSH2 0x6EE JUMP JUMPDEST DUP2 EQ PUSH2 0x70C JUMPI PUSH1 0x0 DUP1 REVERT JUMPDEST POP JUMP JUMPDEST PUSH1 0x0 DUP2 CALLDATALOAD SWAP1 POP PUSH2 0x71E DUP2 PUSH2 0x6F8 JUMP JUMPDEST SWAP3 SWAP2 POP POP JUMP JUMPDEST PUSH1 0x0 PUSH20 0xFFFFFFFFFFFFFFFFFFFFFFFFFFFFFFFFFFFFFFFF DUP3 AND SWAP1 POP SWAP2 SWAP1 POP JUMP JUMPDEST PUSH1 0x0 PUSH2 0x74F DUP3 PUSH2 0x724 JUMP JUMPDEST SWAP1 POP SWAP2 SWAP1 POP JUMP JUMPDEST PUSH2 0x75F DUP2 PUSH2 0x744 JUMP JUMPDEST DUP2 EQ PUSH2 0x76A JUMPI PUSH1 0x0 DUP1 REVERT JUMPDEST POP JUMP JUMPDEST PUSH1 0x0 DUP2 CALLDATALOAD SWAP1 POP PUSH2 0x77C DUP2 PUSH2 0x756 JUMP JUMPDEST SWAP3 SWAP2 POP POP JUMP JUMPDEST PUSH1 0x0 DUP1 PUSH1 0x0 DUP1 PUSH1 0x0 DUP1 PUSH1 0x0 DUP1 PUSH1 0xC0 DUP10 DUP12 SUB SLT ISZERO PUSH2 0x7A2 JUMPI PUSH2 0x7A1 PUSH2 0x629 JUMP JUMPDEST JUMPDEST PUSH1 0x0 DUP10 ADD CALLDATALOAD PUSH8 0xFFFFFFFFFFFFFFFF DUP2 GT ISZERO PUSH2 0x7C0 JUMPI PUSH2 0x7BF PUSH2 0x62E JUMP JUMPDEST JUMPDEST PUSH2 0x7CC DUP12 DUP3 DUP13 ADD PUSH2 0x642 JUMP JUMPDEST SWAP9 POP SWAP9 POP POP PUSH1 0x20 DUP10 ADD CALLDATALOAD PUSH8 0xFFFFFFFFFFFFFFFF DUP2 GT ISZERO PUSH2 0x7EF JUMPI PUSH2 0x7EE PUSH2 0x62E JUMP JUMPDEST JUMPDEST PUSH2 0x7FB DUP12 DUP3 DUP13 ADD PUSH2 0x698 JUMP JUMPDEST SWAP7 POP SWAP7 POP POP PUSH1 0x40 PUSH2 0x80E DUP12 DUP3 DUP13 ADD PUSH2 0x70F JUMP JUMPDEST SWAP5 POP POP PUSH1 0x60 PUSH2 0x81F DUP12 DUP3 DUP13 ADD PUSH2 0x76D JUMP JUMPDEST SWAP4 POP POP PUSH1 0x80 PUSH2 0x830 DUP12 DUP3 DUP13 ADD PUSH2 0x76D JUMP JUMPDEST SWAP3 POP POP PUSH1 0xA0 PUSH2 0x841 DUP12 DUP3 DUP13 ADD PUSH2 0x76D JUMP JUMPDEST SWAP2 POP POP SWAP3 SWAP6 SWAP9 POP SWAP3 SWAP6 SWAP9 SWAP1 SWAP4 SWAP7 POP JUMP JUMPDEST PUSH1 0x0 DUP1 PUSH1 0x20 DUP4 DUP6 SUB SLT ISZERO PUSH2 0x868 JUMPI PUSH2 0x867 PUSH2 0x629 JUMP JUMPDEST JUMPDEST PUSH1 0x0 DUP4 ADD CALLDATALOAD PUSH8 0xFFFFFFFFFFFFFFFF DUP2 GT ISZERO PUSH2 0x886 JUMPI PUSH2 0x885 PUSH2 0x62E JUMP JUMPDEST JUMPDEST PUSH2 0x892 DUP6 DUP3 DUP7 ADD PUSH2 0x642 JUMP JUMPDEST SWAP3 POP SWAP3 POP POP SWAP3 POP SWAP3 SWAP1 POP JUMP JUMPDEST PUSH1 0x0 DUP2 MLOAD SWAP1 POP SWAP2 SWAP1 POP JUMP JUMPDEST PUSH1 0x0 DUP3 DUP3 MSTORE PUSH1 0x20 DUP3 ADD SWAP1 POP SWAP3 SWAP2 POP POP JUMP JUMPDEST PUSH1 0x0 JUMPDEST DUP4 DUP2 LT ISZERO PUSH2 0x8D8 JUMPI DUP1 DUP3 ADD MLOAD DUP2 DUP5 ADD MSTORE PUSH1 0x20 DUP2 ADD SWAP1 POP PUSH2 0x8BD JUMP JUMPDEST PUSH1 0x0 DUP5 DUP5 ADD MSTORE POP POP POP POP JUMP JUMPDEST PUSH1 0x0 PUSH1 0x1F NOT PUSH1 0x1F DUP4 ADD AND SWAP1 POP SWAP2 SWAP1 POP JUMP JUMPDEST PUSH1 0x0 PUSH2 0x900 DUP3 PUSH2 0x89E JUMP JUMPDEST PUSH2 0x90A DUP2 DUP6 PUSH2 0x8A9 JUMP JUMPDEST SWAP4 POP PUSH2 0x91A DUP2 DUP6 PUSH1 0x20 DUP7 ADD PUSH2 0x8BA JUMP JUMPDEST PUSH2 0x923 DUP2 PUSH2 0x8E4 JUMP JUMPDEST DUP5 ADD SWAP2 POP POP SWAP3 SWAP2 POP POP JUMP JUMPDEST PUSH1 0x0 PUSH1 0x20 DUP3 ADD SWAP1 POP DUP2 DUP2 SUB PUSH1 0x0 DUP4 ADD MSTORE PUSH2 0x948 DUP2 DUP5 PUSH2 0x8F5 JUMP JUMPDEST SWAP1 POP SWAP3 SWAP2 POP POP JUMP JUMPDEST PUSH1 0x0 DUP2 SWAP1 POP SWAP3 SWAP2 POP POP JUMP JUMPDEST DUP3 DUP2 DUP4 CALLDATACOPY PUSH1 0x0 DUP4 DUP4 ADD MSTORE POP POP POP JUMP JUMPDEST PUSH1 0x0 PUSH2 0x976 DUP4 DUP6 PUSH2 0x950 JUMP JUMPDEST SWAP4 POP PUSH2 0x983 DUP4 DUP6 DUP5 PUSH2 0x95B JUMP JUMPDEST DUP3 DUP5 ADD SWAP1 POP SWAP4 SWAP3 POP POP POP JUMP JUMPDEST PUSH1 0x0 PUSH2 0x99C DUP3 DUP5 DUP7 PUSH2 0x96A JUMP JUMPDEST SWAP2 POP DUP2 SWAP1 POP SWAP4 SWAP3 POP POP POP JUMP JUMPDEST PUSH1 0x0 DUP3 SWAP1 POP SWAP3 SWAP2 POP POP JUMP JUMPDEST PUSH32 0x4E487B7100000000000000000000000000000000000000000000000000000000 PUSH1 0x0 MSTORE PUSH1 0x41 PUSH1 0x4 MSTORE PUSH1 0x24 PUSH1 0x0 REVERT JUMPDEST PUSH32 0x4E487B7100000000000000000000000000000000000000000000000000000000 PUSH1 0x0 MSTORE PUSH1 0x22 PUSH1 0x4 MSTORE PUSH1 0x24 PUSH1 0x0 REVERT JUMPDEST PUSH1 0x0 PUSH1 0x2 DUP3 DIV SWAP1 POP PUSH1 0x1 DUP3 AND DUP1 PUSH2 0xA29 JUMPI PUSH1 0x7F DUP3 AND SWAP2 POP JUMPDEST PUSH1 0x20 DUP3 LT DUP2 SUB PUSH2 0xA3C JUMPI PUSH2 0xA3B PUSH2 0x9E2 JUMP JUMPDEST JUMPDEST POP SWAP2 SWAP1 POP JUMP JUMPDEST PUSH1 0x0 DUP2 SWAP1 POP DUP2 PUSH1 0x0 MSTORE PUSH1 0x20 PUSH1 0x0 KECCAK256 SWAP1 POP SWAP2 SWAP1 POP JUMP JUMPDEST PUSH1 0x0 PUSH1 0x20 PUSH1 0x1F DUP4 ADD DIV SWAP1 POP SWAP2 SWAP1 POP JUMP JUMPDEST PUSH1 0x0 DUP3 DUP3 SHL SWAP1 POP SWAP3 SWAP2 POP POP JUMP JUMPDEST PUSH1 0x0 PUSH1 0x8 DUP4 MUL PUSH2 0xAA4 PUSH32 0xFFFFFFFFFFFFFFFFFFFFFFFFFFFFFFFFFFFFFFFFFFFFFFFFFFFFFFFFFFFFFFFF DUP3 PUSH2 0xA67 JUMP JUMPDEST PUSH2 0xAAE DUP7 DUP4 PUSH2 0xA67 JUMP JUMPDEST SWAP6 POP DUP1 NOT DUP5 AND SWAP4 POP DUP1 DUP7 AND DUP5 OR SWAP3 POP POP POP SWAP4 SWAP3 POP POP POP JUMP JUMPDEST PUSH1 0x0 DUP2 SWAP1 POP SWAP2 SWAP1 POP JUMP JUMPDEST PUSH1 0x0 DUP2 SWAP1 POP SWAP2 SWAP1 POP JUMP JUMPDEST PUSH1 0x0 PUSH2 0xAF5 PUSH2 0xAF0 PUSH2 0xAEB DUP5 PUSH2 0xAC6 JUMP JUMPDEST PUSH2 0xAD0 JUMP JUMPDEST PUSH2 0xAC6 JUMP JUMPDEST SWAP1 POP SWAP2 SWAP1 POP JUMP JUMPDEST PUSH1 0x0 DUP2 SWAP1 POP SWAP2 SWAP1 POP JUMP JUMPDEST PUSH2 0xB0F DUP4 PUSH2 0xADA JUMP JUMPDEST PUSH2 0xB23 PUSH2 0xB1B DUP3 PUSH2 0xAFC JUMP JUMPDEST DUP5 DUP5 SLOAD PUSH2 0xA74 JUMP JUMPDEST DUP3 SSTORE POP POP POP POP JUMP JUMPDEST PUSH1 0x0 SWAP1 JUMP JUMPDEST PUSH2 0xB38 PUSH2 0xB2B JUMP JUMPDEST PUSH2 0xB43 DUP2 DUP5 DUP5 PUSH2 0xB06 JUMP JUMPDEST POP POP POP JUMP JUMPDEST JUMPDEST DUP2 DUP2 LT ISZERO PUSH2 0xB67 JUMPI PUSH2 0xB5C PUSH1 0x0 DUP3 PUSH2 0xB30 JUMP JUMPDEST PUSH1 0x1 DUP2 ADD SWAP1 POP PUSH2 0xB49 JUMP JUMPDEST POP POP JUMP JUMPDEST PUSH1 0x1F DUP3 GT ISZERO PUSH2 0xBAC JUMPI PUSH2 0xB7D DUP2 PUSH2 0xA42 JUMP JUMPDEST PUSH2 0xB86 DUP5 PUSH2 0xA57 JUMP JUMPDEST DUP2 ADD PUSH1 0x20 DUP6 LT ISZERO PUSH2 0xB95 JUMPI DUP2 SWAP1 POP JUMPDEST PUSH2 0xBA9 PUSH2 0xBA1 DUP6 PUSH2 0xA57 JUMP JUMPDEST DUP4 ADD DUP3 PUSH2 0xB48 JUMP JUMPDEST POP POP JUMPDEST POP POP POP JUMP JUMPDEST PUSH1 0x0 DUP3 DUP3 SHR SWAP1 POP SWAP3 SWAP2 POP POP JUMP JUMPDEST PUSH1 0x0 PUSH2 0xBCF PUSH1 0x0 NOT DUP5 PUSH1 0x8 MUL PUSH2 0xBB1 JUMP JUMPDEST NOT DUP1 DUP4 AND SWAP2 POP POP SWAP3 SWAP2 POP POP JUMP JUMPDEST PUSH1 0x0 PUSH2 0xBE8 DUP4 DUP4 PUSH2 0xBBE JUMP JUMPDEST SWAP2 POP DUP3 PUSH1 0x2 MUL DUP3 OR SWAP1 POP SWAP3 SWAP2 POP POP JUMP JUMPDEST PUSH2 0xC02 DUP4 DUP4 PUSH2 0x9A8 JUMP JUMPDEST PUSH8 0xFFFFFFFFFFFFFFFF DUP2 GT ISZERO PUSH2 0xC1B JUMPI PUSH2 0xC1A PUSH2 0x9B3 JUMP JUMPDEST JUMPDEST PUSH2 0xC25 DUP3 SLOAD PUSH2 0xA11 JUMP JUMPDEST PUSH2 0xC30 DUP3 DUP3 DUP6 PUSH2 0xB6B JUMP JUMPDEST PUSH1 0x0 PUSH1 0x1F DUP4 GT PUSH1 0x1 DUP2 EQ PUSH2 0xC5F JUMPI PUSH1 0x0 DUP5 ISZERO PUSH2 0xC4D JUMPI DUP3 DUP8 ADD CALLDATALOAD SWAP1 POP JUMPDEST PUSH2 0xC57 DUP6 DUP3 PUSH2 0xBDC JUMP JUMPDEST DUP7 SSTORE POP PUSH2 0xCBF JUMP JUMPDEST PUSH1 0x1F NOT DUP5 AND PUSH2 0xC6D DUP7 PUSH2 0xA42 JUMP JUMPDEST PUSH1 0x0 JUMPDEST DUP3 DUP2 LT ISZERO PUSH2 0xC95 JUMPI DUP5 DUP10 ADD CALLDATALOAD DUP3 SSTORE PUSH1 0x1 DUP3 ADD SWAP2 POP PUSH1 0x20 DUP6 ADD SWAP5 POP PUSH1 0x20 DUP2 ADD SWAP1 POP PUSH2 0xC70 JUMP JUMPDEST DUP7 DUP4 LT ISZERO PUSH2 0xCB2 JUMPI DUP5 DUP10 ADD CALLDATALOAD PUSH2 0xCAE PUSH1 0x1F DUP10 AND DUP3 PUSH2 0xBBE JUMP JUMPDEST DUP4 SSTORE POP JUMPDEST PUSH1 0x1 PUSH1 0x2 DUP9 MUL ADD DUP9 SSTORE POP POP POP JUMPDEST POP POP POP POP POP POP POP JUMP JUMPDEST PUSH1 0x0 DUP3 DUP3 MSTORE PUSH1 0x20 DUP3 ADD SWAP1 POP SWAP3 SWAP2 POP POP JUMP JUMPDEST PUSH1 0x0 PUSH2 0xCE5 DUP4 DUP6 PUSH2 0xCC8 JUMP JUMPDEST SWAP4 POP PUSH2 0xCF2 DUP4 DUP6 DUP5 PUSH2 0x95B JUMP JUMPDEST PUSH2 0xCFB DUP4 PUSH2 0x8E4 JUMP JUMPDEST DUP5 ADD SWAP1 POP SWAP4 SWAP3 POP POP POP JUMP JUMPDEST PUSH1 0x0 PUSH1 0x20 DUP3 ADD SWAP1 POP DUP2 DUP2 SUB PUSH1 0x0 DUP4 ADD MSTORE PUSH2 0xD21 DUP2 DUP5 DUP7 PUSH2 0xCD9 JUMP JUMPDEST SWAP1 POP SWAP4 SWAP3 POP POP POP JUMP JUMPDEST PUSH32 0x4163636573732064656E69656400000000000000000000000000000000000000 PUSH1 0x0 DUP3 ADD MSTORE POP JUMP JUMPDEST PUSH1 0x0 PUSH2 0xD60 PUSH1 0xD DUP4 PUSH2 0xCC8 JUMP JUMPDEST SWAP2 POP PUSH2 0xD6B DUP3 PUSH2 0xD2A JUMP JUMPDEST PUSH1 0x20 DUP3 ADD SWAP1 POP SWAP2 SWAP1 POP JUMP JUMPDEST PUSH1 0x0 PUSH1 0x20 DUP3 ADD SWAP1 POP DUP2 DUP2 SUB PUSH1 0x0 DUP4 ADD MSTORE PUSH2 0xD8F DUP2 PUSH2 0xD53 JUMP JUMPDEST SWAP1 POP SWAP2 SWAP1 POP JUMP JUMPDEST PUSH32 0x4E487B7100000000000000000000000000000000000000000000000000000000 PUSH1 0x0 MSTORE PUSH1 0x12 PUSH1 0x4 MSTORE PUSH1 0x24 PUSH1 0x0 REVERT JUMPDEST PUSH1 0x0 PUSH2 0xDD0 DUP3 PUSH2 0xAC6 JUMP JUMPDEST SWAP2 POP PUSH2 0xDDB DUP4 PUSH2 0xAC6 JUMP JUMPDEST SWAP3 POP DUP3 PUSH2 0xDEB JUMPI PUSH2 0xDEA PUSH2 0xD96 JUMP JUMPDEST JUMPDEST DUP3 DUP3 MOD SWAP1 POP SWAP3 SWAP2 POP POP JUMP JUMPDEST PUSH32 0x4E487B7100000000000000000000000000000000000000000000000000000000 PUSH1 0x0 MSTORE PUSH1 0x32 PUSH1 0x4 MSTORE PUSH1 0x24 PUSH1 0x0 REVERT JUMPDEST PUSH32 0x4E487B7100000000000000000000000000000000000000000000000000000000 PUSH1 0x0 MSTORE PUSH1 0x11 PUSH1 0x4 MSTORE PUSH1 0x24 PUSH1 0x0 REVERT JUMPDEST PUSH1 0x0 PUSH2 0xE5F DUP3 PUSH2 0xAC6 JUMP JUMPDEST SWAP2 POP PUSH32 0xFFFFFFFFFFFFFFFFFFFFFFFFFFFFFFFFFFFFFFFFFFFFFFFFFFFFFFFFFFFFFFFF DUP3 SUB PUSH2 0xE91 JUMPI PUSH2 0xE90 PUSH2 0xE25 JUMP JUMPDEST JUMPDEST PUSH1 0x1 DUP3 ADD SWAP1 POP SWAP2 SWAP1 POP JUMP INVALID LOG2 PUSH5 0x6970667358 0x22 SLT KECCAK256 0x4C 0x49 BYTE SMOD PUSH26 0x2A183B19E1755939004198E78F778BBE3AD37EE660163A985298 PUSH32 0x64736F6C63430008120033000000000000000000000000000000000000000000 "
		},
		"gasEstimates": {
			"creation": {
				"codeDepositCost": "758800",
				"executionCost": "792",
				"totalCost": "759592"
			},
			"external": {
				"downloadDecryptedFile(string)": "infinite",
				"uploadEncryptedFile(string,bytes,bytes32,address,address,address)": "infinite"
			},
			"internal": {
				"decryptFile(bytes memory,bytes32)": "infinite",
				"downloadFromIPFS(string calldata)": "infinite",
				"uploadToIPFS(string calldata,bytes calldata)": "infinite"
			}
		},
		"methodIdentifiers": {
			"downloadDecryptedFile(string)": "7789e5ff",
			"uploadEncryptedFile(string,bytes,bytes32,address,address,address)": "68f3cd8d"
		}
	},
	"abi": [
		{
			"anonymous": false,
			"inputs": [
				{
					"indexed": false,
					"internalType": "string",
					"name": "ipfsHash",
					"type": "string"
				},
				{
					"indexed": true,
					"internalType": "address",
					"name": "newInsurance",
					"type": "address"
				},
				{
					"indexed": true,
					"internalType": "address",
					"name": "newPhysician",
					"type": "address"
				},
				{
					"indexed": true,
					"internalType": "address",
					"name": "newEmergencyContact",
					"type": "address"
				}
			],
			"name": "AccessControlChanged",
			"type": "event"
		},
		{
			"anonymous": false,
			"inputs": [
				{
					"indexed": false,
					"internalType": "string",
					"name": "ipfsHash",
					"type": "string"
				}
			],
			"name": "FileUploaded",
			"type": "event"
		},
		{
			"inputs": [
				{
					"internalType": "string",
					"name": "ipfsHash",
					"type": "string"
				}
			],
			"name": "downloadDecryptedFile",
			"outputs": [
				{
					"internalType": "bytes",
					"name": "",
					"type": "bytes"
				}
			],
			"stateMutability": "view",
			"type": "function"
		},
		{
			"inputs": [
				{
					"internalType": "string",
					"name": "ipfsHash",
					"type": "string"
				},
				{
					"internalType": "bytes",
					"name": "encryptedFile",
					"type": "bytes"
				},
				{
					"internalType": "bytes32",
					"name": "encryptionKey",
					"type": "bytes32"
				},
				{
					"internalType": "address",
					"name": "insurance",
					"type": "address"
				},
				{
					"internalType": "address",
					"name": "primaryCarePhysician",
					"type": "address"
				},
				{
					"internalType": "address",
					"name": "emergencyContact",
					"type": "address"
				}
			],
			"name": "uploadEncryptedFile",
			"outputs": [],
			"stateMutability": "nonpayable",
			"type": "function"
		}
	]
}